{
  "_format": "hh-sol-artifact-1",
  "contractName": "Create",
  "sourceName": "contracts/VotingContract.sol",
  "abi": [
    {
      "inputs": [],
      "stateMutability": "nonpayable",
      "type": "constructor"
    },
    {
      "anonymous": false,
      "inputs": [
        {
          "indexed": true,
          "internalType": "uint256",
          "name": "candidateId",
          "type": "uint256"
        },
        {
          "indexed": false,
          "internalType": "string",
          "name": "age",
          "type": "string"
        },
        {
          "indexed": false,
          "internalType": "string",
          "name": "name",
          "type": "string"
        },
        {
          "indexed": false,
          "internalType": "uint256",
          "name": "voteCount",
          "type": "uint256"
        },
        {
          "indexed": false,
          "internalType": "address",
          "name": "_address",
          "type": "address"
        }
      ],
      "name": "CandidateCreate",
      "type": "event"
    },
    {
      "anonymous": false,
      "inputs": [
        {
          "indexed": true,
          "internalType": "uint256",
          "name": "voter_voterId",
          "type": "uint256"
        },
        {
          "indexed": false,
          "internalType": "string",
          "name": "voter_name",
          "type": "string"
        },
        {
          "indexed": false,
          "internalType": "address",
          "name": "voter_address",
          "type": "address"
        },
        {
          "indexed": false,
          "internalType": "uint256",
          "name": "voter_allowed",
          "type": "uint256"
        },
        {
          "indexed": false,
          "internalType": "bool",
          "name": "voter_voted",
          "type": "bool"
        },
        {
          "indexed": false,
          "internalType": "uint256",
          "name": "voter_vote",
          "type": "uint256"
        }
      ],
      "name": "VoterCreated",
      "type": "event"
    },
    {
      "inputs": [],
      "name": "_candidateId",
      "outputs": [
        {
          "internalType": "uint256",
          "name": "_value",
          "type": "uint256"
        }
      ],
      "stateMutability": "view",
      "type": "function"
    },
    {
      "inputs": [],
      "name": "_voterId",
      "outputs": [
        {
          "internalType": "uint256",
          "name": "_value",
          "type": "uint256"
        }
      ],
      "stateMutability": "view",
      "type": "function"
    },
    {
      "inputs": [
        {
          "internalType": "uint256",
          "name": "",
          "type": "uint256"
        }
      ],
      "name": "candidateAddress",
      "outputs": [
        {
          "internalType": "address",
          "name": "",
          "type": "address"
        }
      ],
      "stateMutability": "view",
      "type": "function"
    },
    {
      "inputs": [
        {
          "internalType": "address",
          "name": "",
          "type": "address"
        }
      ],
      "name": "candidates",
      "outputs": [
        {
          "internalType": "uint256",
          "name": "candidateId",
          "type": "uint256"
        },
        {
          "internalType": "string",
          "name": "age",
          "type": "string"
        },
        {
          "internalType": "string",
          "name": "name",
          "type": "string"
        },
        {
          "internalType": "uint256",
          "name": "voteCount",
          "type": "uint256"
        },
        {
          "internalType": "address",
          "name": "_address",
          "type": "address"
        }
      ],
      "stateMutability": "view",
      "type": "function"
    },
    {
      "inputs": [],
      "name": "getCandidate",
      "outputs": [
        {
          "internalType": "address[]",
          "name": "",
          "type": "address[]"
        }
      ],
      "stateMutability": "view",
      "type": "function"
    },
    {
      "inputs": [
        {
          "internalType": "address",
          "name": "_address",
          "type": "address"
        }
      ],
      "name": "getCandidateData",
      "outputs": [
        {
          "internalType": "string",
          "name": "",
          "type": "string"
        },
        {
          "internalType": "string",
          "name": "",
          "type": "string"
        },
        {
          "internalType": "uint256",
          "name": "",
          "type": "uint256"
        },
        {
          "internalType": "uint256",
          "name": "",
          "type": "uint256"
        },
        {
          "internalType": "address",
          "name": "",
          "type": "address"
        }
      ],
      "stateMutability": "view",
      "type": "function"
    },
    {
      "inputs": [],
      "name": "getCandidateLength",
      "outputs": [
        {
          "internalType": "uint256",
          "name": "",
          "type": "uint256"
        }
      ],
      "stateMutability": "view",
      "type": "function"
    },
    {
      "inputs": [],
      "name": "getVotedVoterList",
      "outputs": [
        {
          "internalType": "address[]",
          "name": "",
          "type": "address[]"
        }
      ],
      "stateMutability": "view",
      "type": "function"
    },
    {
      "inputs": [
        {
          "internalType": "address",
          "name": "_address",
          "type": "address"
        }
      ],
      "name": "getVoterData",
      "outputs": [
        {
          "internalType": "uint256",
          "name": "",
          "type": "uint256"
        },
        {
          "internalType": "string",
          "name": "",
          "type": "string"
        },
        {
          "internalType": "address",
          "name": "",
          "type": "address"
        },
        {
          "internalType": "uint256",
          "name": "",
          "type": "uint256"
        },
        {
          "internalType": "bool",
          "name": "",
          "type": "bool"
        }
      ],
      "stateMutability": "view",
      "type": "function"
    },
    {
      "inputs": [],
      "name": "getVoterLength",
      "outputs": [
        {
          "internalType": "uint256",
          "name": "",
          "type": "uint256"
        }
      ],
      "stateMutability": "view",
      "type": "function"
    },
    {
      "inputs": [],
      "name": "getVoterList",
      "outputs": [
        {
          "internalType": "address[]",
          "name": "",
          "type": "address[]"
        }
      ],
      "stateMutability": "view",
      "type": "function"
    },
    {
      "inputs": [
        {
          "internalType": "address",
          "name": "_address",
          "type": "address"
        },
        {
          "internalType": "string",
          "name": "_age",
          "type": "string"
        },
        {
          "internalType": "string",
          "name": "_name",
          "type": "string"
        }
      ],
      "name": "setCandidate",
      "outputs": [],
      "stateMutability": "nonpayable",
      "type": "function"
    },
    {
      "inputs": [
        {
          "internalType": "address",
          "name": "_candidateAddress",
          "type": "address"
        },
        {
          "internalType": "uint256",
          "name": "_candidateVoteId",
          "type": "uint256"
        }
      ],
      "name": "vote",
      "outputs": [],
      "stateMutability": "nonpayable",
      "type": "function"
    },
    {
      "inputs": [
        {
          "internalType": "uint256",
          "name": "",
          "type": "uint256"
        }
      ],
      "name": "votedVoters",
      "outputs": [
        {
          "internalType": "address",
          "name": "",
          "type": "address"
        }
      ],
      "stateMutability": "view",
      "type": "function"
    },
    {
      "inputs": [
        {
          "internalType": "address",
          "name": "_address",
          "type": "address"
        },
        {
          "internalType": "string",
          "name": "_name",
          "type": "string"
        }
      ],
      "name": "voterRight",
      "outputs": [],
      "stateMutability": "nonpayable",
      "type": "function"
    },
    {
      "inputs": [
        {
          "internalType": "address",
          "name": "",
          "type": "address"
        }
      ],
      "name": "voters",
      "outputs": [
        {
          "internalType": "uint256",
          "name": "voter_voterId",
          "type": "uint256"
        },
        {
          "internalType": "string",
          "name": "voter_name",
          "type": "string"
        },
        {
          "internalType": "address",
          "name": "voter_address",
          "type": "address"
        },
        {
          "internalType": "uint256",
          "name": "voter_allowed",
          "type": "uint256"
        },
        {
          "internalType": "bool",
          "name": "voter_voted",
          "type": "bool"
        },
        {
          "internalType": "uint256",
          "name": "voter_vote",
          "type": "uint256"
        }
      ],
      "stateMutability": "view",
      "type": "function"
    },
    {
      "inputs": [
        {
          "internalType": "uint256",
          "name": "",
          "type": "uint256"
        }
      ],
      "name": "votersAddress",
      "outputs": [
        {
          "internalType": "address",
          "name": "",
          "type": "address"
        }
      ],
      "stateMutability": "view",
      "type": "function"
    },
    {
      "inputs": [],
      "name": "votingOrganizer",
      "outputs": [
        {
          "internalType": "address",
          "name": "",
          "type": "address"
        }
      ],
      "stateMutability": "view",
      "type": "function"
    }
  ],
  "bytecode": "0x608060405234801561001057600080fd5b5033600260006101000a81548173ffffffffffffffffffffffffffffffffffffffff021916908373ffffffffffffffffffffffffffffffffffffffff160217905550611ec2806100616000396000f3fe608060405234801561001057600080fd5b50600436106101165760003560e01c80637a60ba41116100a2578063a3ec138d11610071578063a3ec138d14610313578063a738896714610348578063b28d92ae14610366578063b9be315214610384578063f7522a83146103a257610116565b80637a60ba41146102715780638ab66a901461028d5780638e945685146102c15780638fb4cd80146102df57610116565b80635cc48aa7116100e95780635cc48aa7146101cd5780635f74bbde146101eb578063676f243a1461020757806370218b85146102235780637831ffb31461024157610116565b806305ad45a41461011b5780632a466ac7146101395780633a88251a1461016d57806343242daa1461019d575b600080fd5b6101236103c0565b6040516101309190611472565b60405180910390f35b610153600480360381019061014e91906114ff565b6103cd565b6040516101649594939291906115d4565b60405180910390f35b61018760048036038101906101829190611661565b61066d565b604051610194919061168e565b60405180910390f35b6101b760048036038101906101b29190611661565b6106ac565b6040516101c4919061168e565b60405180910390f35b6101d56106eb565b6040516101e2919061168e565b60405180910390f35b610205600480360381019061020091906116a9565b610711565b005b610221600480360381019061021c919061181e565b6108d9565b005b61022b610b2e565b6040516102389190611938565b60405180910390f35b61025b60048036038101906102569190611661565b610bbc565b604051610268919061168e565b60405180910390f35b61028b6004803603810190610286919061195a565b610bfb565b005b6102a760048036038101906102a291906114ff565b610dd7565b6040516102b89594939291906119e5565b60405180910390f35b6102c9610f3d565b6040516102d69190611938565b60405180910390f35b6102f960048036038101906102f491906114ff565b610fcb565b60405161030a959493929190611a61565b60405180910390f35b61032d600480360381019061032891906114ff565b6111ee565b60405161033f96959493929190611abb565b60405180910390f35b6103506112df565b60405161035d9190611472565b60405180910390f35b61036e6112eb565b60405161037b9190611938565b60405180910390f35b61038c611379565b6040516103999190611472565b60405180910390f35b6103aa611385565b6040516103b79190611472565b60405180910390f35b6000600680549050905090565b6060806000806000600460008773ffffffffffffffffffffffffffffffffffffffff1673ffffffffffffffffffffffffffffffffffffffff168152602001908152602001600020600101600460008873ffffffffffffffffffffffffffffffffffffffff1673ffffffffffffffffffffffffffffffffffffffff168152602001908152602001600020600201600460008973ffffffffffffffffffffffffffffffffffffffff1673ffffffffffffffffffffffffffffffffffffffff16815260200190815260200160002060000154600460008a73ffffffffffffffffffffffffffffffffffffffff1673ffffffffffffffffffffffffffffffffffffffff16815260200190815260200160002060030154600460008b73ffffffffffffffffffffffffffffffffffffffff1673ffffffffffffffffffffffffffffffffffffffff16815260200190815260200160002060040160009054906101000a900473ffffffffffffffffffffffffffffffffffffffff1684805461054e90611b52565b80601f016020809104026020016040519081016040528092919081815260200182805461057a90611b52565b80156105c75780601f1061059c576101008083540402835291602001916105c7565b820191906000526020600020905b8154815290600101906020018083116105aa57829003601f168201915b505050505094508380546105da90611b52565b80601f016020809104026020016040519081016040528092919081815260200182805461060690611b52565b80156106535780601f1061062857610100808354040283529160200191610653565b820191906000526020600020905b81548152906001019060200180831161063657829003601f168201915b505050505093509450945094509450945091939590929450565b6003818154811061067d57600080fd5b906000526020600020016000915054906101000a900473ffffffffffffffffffffffffffffffffffffffff1681565b600681815481106106bc57600080fd5b906000526020600020016000915054906101000a900473ffffffffffffffffffffffffffffffffffffffff1681565b600260009054906101000a900473ffffffffffffffffffffffffffffffffffffffff1681565b6000600760003373ffffffffffffffffffffffffffffffffffffffff1673ffffffffffffffffffffffffffffffffffffffff16815260200190815260200160002090508060040160009054906101000a900460ff16156107a6576040517f08c379a000000000000000000000000000000000000000000000000000000000815260040161079d90611bd0565b60405180910390fd5b6000816003015414156107ee576040517f08c379a00000000000000000000000000000000000000000000000000000000081526004016107e590611c3c565b60405180910390fd5b60018160040160006101000a81548160ff0219169083151502179055508181600501819055506005339080600181540180825580915050600190039060005260206000200160009091909190916101000a81548173ffffffffffffffffffffffffffffffffffffffff021916908373ffffffffffffffffffffffffffffffffffffffff1602179055508060030154600460008573ffffffffffffffffffffffffffffffffffffffff1673ffffffffffffffffffffffffffffffffffffffff16815260200190815260200160002060030160008282546108cd9190611c8b565b92505081905550505050565b3373ffffffffffffffffffffffffffffffffffffffff16600260009054906101000a900473ffffffffffffffffffffffffffffffffffffffff1673ffffffffffffffffffffffffffffffffffffffff1614610969576040517f08c379a000000000000000000000000000000000000000000000000000000000815260040161096090611d2d565b60405180910390fd5b6109736000611392565b600061097f60006113a8565b90506000600760008573ffffffffffffffffffffffffffffffffffffffff1673ffffffffffffffffffffffffffffffffffffffff168152602001908152602001600020905060008160030154146109d557600080fd5b60018160030181905550828160010190805190602001906109f79291906113b6565b50838160020160006101000a81548173ffffffffffffffffffffffffffffffffffffffff021916908373ffffffffffffffffffffffffffffffffffffffff1602179055508181600001819055506103e8816005018190555060008160040160006101000a81548160ff0219169083151502179055506006849080600181540180825580915050600190039060005260206000200160009091909190916101000a81548173ffffffffffffffffffffffffffffffffffffffff021916908373ffffffffffffffffffffffffffffffffffffffff160217905550817f6eea93ee3bd3f0aaa240450f0fe70bc5964a830445ff8f165fd9eb1ec1ede3d8848684600301548560040160009054906101000a900460ff168660050154604051610b20959493929190611d4d565b60405180910390a250505050565b60606003805480602002602001604051908101604052809291908181526020018280548015610bb257602002820191906000526020600020905b8160009054906101000a900473ffffffffffffffffffffffffffffffffffffffff1673ffffffffffffffffffffffffffffffffffffffff1681526020019060010190808311610b68575b5050505050905090565b60058181548110610bcc57600080fd5b906000526020600020016000915054906101000a900473ffffffffffffffffffffffffffffffffffffffff1681565b3373ffffffffffffffffffffffffffffffffffffffff16600260009054906101000a900473ffffffffffffffffffffffffffffffffffffffff1673ffffffffffffffffffffffffffffffffffffffff1614610c8b576040517f08c379a0000000000000000000000000000000000000000000000000000000008152600401610c8290611e19565b60405180910390fd5b610c956001611392565b6000610ca160016113a8565b90506000600460008673ffffffffffffffffffffffffffffffffffffffff1673ffffffffffffffffffffffffffffffffffffffff168152602001908152602001600020905083816001019080519060200190610cfe9291906113b6565b5082816002019080519060200190610d179291906113b6565b50818160000181905550600081600301819055506003859080600181540180825580915050600190039060005260206000200160009091909190916101000a81548173ffffffffffffffffffffffffffffffffffffffff021916908373ffffffffffffffffffffffffffffffffffffffff160217905550817f08dd4bc574cc17d01af017961e76f11c5eee75ffe07e2d36f90b7e2a83ef754d8585846003015489604051610dc89493929190611e39565b60405180910390a25050505050565b6004602052806000526040600020600091509050806000015490806001018054610e0090611b52565b80601f0160208091040260200160405190810160405280929190818152602001828054610e2c90611b52565b8015610e795780601f10610e4e57610100808354040283529160200191610e79565b820191906000526020600020905b815481529060010190602001808311610e5c57829003601f168201915b505050505090806002018054610e8e90611b52565b80601f0160208091040260200160405190810160405280929190818152602001828054610eba90611b52565b8015610f075780601f10610edc57610100808354040283529160200191610f07565b820191906000526020600020905b815481529060010190602001808311610eea57829003601f168201915b5050505050908060030154908060040160009054906101000a900473ffffffffffffffffffffffffffffffffffffffff16905085565b60606005805480602002602001604051908101604052809291908181526020018280548015610fc157602002820191906000526020600020905b8160009054906101000a900473ffffffffffffffffffffffffffffffffffffffff1673ffffffffffffffffffffffffffffffffffffffff1681526020019060010190808311610f77575b5050505050905090565b600060606000806000600760008773ffffffffffffffffffffffffffffffffffffffff1673ffffffffffffffffffffffffffffffffffffffff16815260200190815260200160002060000154600760008873ffffffffffffffffffffffffffffffffffffffff1673ffffffffffffffffffffffffffffffffffffffff168152602001908152602001600020600101600760008973ffffffffffffffffffffffffffffffffffffffff1673ffffffffffffffffffffffffffffffffffffffff16815260200190815260200160002060020160009054906101000a900473ffffffffffffffffffffffffffffffffffffffff16600760008a73ffffffffffffffffffffffffffffffffffffffff1673ffffffffffffffffffffffffffffffffffffffff16815260200190815260200160002060030154600760008b73ffffffffffffffffffffffffffffffffffffffff1673ffffffffffffffffffffffffffffffffffffffff16815260200190815260200160002060040160009054906101000a900460ff1683805461115b90611b52565b80601f016020809104026020016040519081016040528092919081815260200182805461118790611b52565b80156111d45780601f106111a9576101008083540402835291602001916111d4565b820191906000526020600020905b8154815290600101906020018083116111b757829003601f168201915b505050505093509450945094509450945091939590929450565b600760205280600052604060002060009150905080600001549080600101805461121790611b52565b80601f016020809104026020016040519081016040528092919081815260200182805461124390611b52565b80156112905780601f1061126557610100808354040283529160200191611290565b820191906000526020600020905b81548152906001019060200180831161127357829003601f168201915b5050505050908060020160009054906101000a900473ffffffffffffffffffffffffffffffffffffffff16908060030154908060040160009054906101000a900460ff16908060050154905086565b60018060000154905081565b6060600680548060200260200160405190810160405280929190818152602001828054801561136f57602002820191906000526020600020905b8160009054906101000a900473ffffffffffffffffffffffffffffffffffffffff1673ffffffffffffffffffffffffffffffffffffffff1681526020019060010190808311611325575b5050505050905090565b60008060000154905081565b6000600380549050905090565b6001816000016000828254019250508190555050565b600081600001549050919050565b8280546113c290611b52565b90600052602060002090601f0160209004810192826113e4576000855561142b565b82601f106113fd57805160ff191683800117855561142b565b8280016001018555821561142b579182015b8281111561142a57825182559160200191906001019061140f565b5b509050611438919061143c565b5090565b5b8082111561145557600081600090555060010161143d565b5090565b6000819050919050565b61146c81611459565b82525050565b60006020820190506114876000830184611463565b92915050565b6000604051905090565b600080fd5b600080fd5b600073ffffffffffffffffffffffffffffffffffffffff82169050919050565b60006114cc826114a1565b9050919050565b6114dc816114c1565b81146114e757600080fd5b50565b6000813590506114f9816114d3565b92915050565b60006020828403121561151557611514611497565b5b6000611523848285016114ea565b91505092915050565b600081519050919050565b600082825260208201905092915050565b60005b8381101561156657808201518184015260208101905061154b565b83811115611575576000848401525b50505050565b6000601f19601f8301169050919050565b60006115978261152c565b6115a18185611537565b93506115b1818560208601611548565b6115ba8161157b565b840191505092915050565b6115ce816114c1565b82525050565b600060a08201905081810360008301526115ee818861158c565b90508181036020830152611602818761158c565b90506116116040830186611463565b61161e6060830185611463565b61162b60808301846115c5565b9695505050505050565b61163e81611459565b811461164957600080fd5b50565b60008135905061165b81611635565b92915050565b60006020828403121561167757611676611497565b5b60006116858482850161164c565b91505092915050565b60006020820190506116a360008301846115c5565b92915050565b600080604083850312156116c0576116bf611497565b5b60006116ce858286016114ea565b92505060206116df8582860161164c565b9150509250929050565b600080fd5b600080fd5b7f4e487b7100000000000000000000000000000000000000000000000000000000600052604160045260246000fd5b61172b8261157b565b810181811067ffffffffffffffff8211171561174a576117496116f3565b5b80604052505050565b600061175d61148d565b90506117698282611722565b919050565b600067ffffffffffffffff821115611789576117886116f3565b5b6117928261157b565b9050602081019050919050565b82818337600083830152505050565b60006117c16117bc8461176e565b611753565b9050828152602081018484840111156117dd576117dc6116ee565b5b6117e884828561179f565b509392505050565b600082601f830112611805576118046116e9565b5b81356118158482602086016117ae565b91505092915050565b6000806040838503121561183557611834611497565b5b6000611843858286016114ea565b925050602083013567ffffffffffffffff8111156118645761186361149c565b5b611870858286016117f0565b9150509250929050565b600081519050919050565b600082825260208201905092915050565b6000819050602082019050919050565b6118af816114c1565b82525050565b60006118c183836118a6565b60208301905092915050565b6000602082019050919050565b60006118e58261187a565b6118ef8185611885565b93506118fa83611896565b8060005b8381101561192b57815161191288826118b5565b975061191d836118cd565b9250506001810190506118fe565b5085935050505092915050565b6000602082019050818103600083015261195281846118da565b905092915050565b60008060006060848603121561197357611972611497565b5b6000611981868287016114ea565b935050602084013567ffffffffffffffff8111156119a2576119a161149c565b5b6119ae868287016117f0565b925050604084013567ffffffffffffffff8111156119cf576119ce61149c565b5b6119db868287016117f0565b9150509250925092565b600060a0820190506119fa6000830188611463565b8181036020830152611a0c818761158c565b90508181036040830152611a20818661158c565b9050611a2f6060830185611463565b611a3c60808301846115c5565b9695505050505050565b60008115159050919050565b611a5b81611a46565b82525050565b600060a082019050611a766000830188611463565b8181036020830152611a88818761158c565b9050611a9760408301866115c5565b611aa46060830185611463565b611ab16080830184611a52565b9695505050505050565b600060c082019050611ad06000830189611463565b8181036020830152611ae2818861158c565b9050611af160408301876115c5565b611afe6060830186611463565b611b0b6080830185611a52565b611b1860a0830184611463565b979650505050505050565b7f4e487b7100000000000000000000000000000000000000000000000000000000600052602260045260246000fd5b60006002820490506001821680611b6a57607f821691505b60208210811415611b7e57611b7d611b23565b5b50919050565b7f596f75206861766520616c726561647920766f74656400000000000000000000600082015250565b6000611bba601683611537565b9150611bc582611b84565b602082019050919050565b60006020820190508181036000830152611be981611bad565b9050919050565b7f596f752068617665206e6f2072696768747320746f20766f7465000000000000600082015250565b6000611c26601a83611537565b9150611c3182611bf0565b602082019050919050565b60006020820190508181036000830152611c5581611c19565b9050919050565b7f4e487b7100000000000000000000000000000000000000000000000000000000600052601160045260246000fd5b6000611c9682611459565b9150611ca183611459565b9250827fffffffffffffffffffffffffffffffffffffffffffffffffffffffffffffffff03821115611cd657611cd5611c5c565b5b828201905092915050565b7f6f6e6c79206f7267616e697a65722063616e2063726561746520766f74657200600082015250565b6000611d17601f83611537565b9150611d2282611ce1565b602082019050919050565b60006020820190508181036000830152611d4681611d0a565b9050919050565b600060a0820190508181036000830152611d67818861158c565b9050611d7660208301876115c5565b611d836040830186611463565b611d906060830185611a52565b611d9d6080830184611463565b9695505050505050565b7f6f6e6c7920746865206f7267616e697a65722063616e20617574686f72697a6560008201527f2063616e64696461746573000000000000000000000000000000000000000000602082015250565b6000611e03602b83611537565b9150611e0e82611da7565b604082019050919050565b60006020820190508181036000830152611e3281611df6565b9050919050565b60006080820190508181036000830152611e53818761158c565b90508181036020830152611e67818661158c565b9050611e766040830185611463565b611e8360608301846115c5565b9594505050505056fea26469706673582212208401d6db5be688fcb3365f101ec8749786ebff4612c571676651c006c90f6f5a64736f6c63430008090033",
  "linkReferences": {},
  "deployedLinkReferences": {}
}